{
  "_format": "hh-sol-artifact-1",
  "contractName": "lottery",
  "sourceName": "contracts/lottery.sol",
  "abi": [
    {
      "inputs": [],
      "stateMutability": "nonpayable",
      "type": "constructor"
    },
    {
      "inputs": [],
      "name": "buyLotteryTicket",
      "outputs": [],
      "stateMutability": "payable",
      "type": "function"
    },
    {
      "inputs": [],
      "name": "buySingleLotteryTicket",
      "outputs": [],
      "stateMutability": "payable",
      "type": "function"
    },
    {
      "inputs": [],
      "name": "collectBankedFees",
      "outputs": [],
      "stateMutability": "nonpayable",
      "type": "function"
    },
    {
      "inputs": [],
      "name": "currentPot",
      "outputs": [
        {
          "internalType": "uint256",
          "name": "",
          "type": "uint256"
        }
      ],
      "stateMutability": "view",
      "type": "function"
    },
    {
      "inputs": [],
      "name": "endLotteryAndSendPrize",
      "outputs": [],
      "stateMutability": "nonpayable",
      "type": "function"
    },
    {
      "inputs": [],
      "name": "firstPrizePotShare",
      "outputs": [
        {
          "internalType": "uint256",
          "name": "",
          "type": "uint256"
        }
      ],
      "stateMutability": "view",
      "type": "function"
    },
    {
      "inputs": [],
      "name": "myLottery",
      "outputs": [
        {
          "internalType": "string",
          "name": "lotteryTitle",
          "type": "string"
        },
        {
          "internalType": "bool",
          "name": "lotteryTypeIsSingleTicket",
          "type": "bool"
        },
        {
          "internalType": "uint256",
          "name": "lotteryStartDate",
          "type": "uint256"
        },
        {
          "internalType": "uint256",
          "name": "lotteryTicketPrice",
          "type": "uint256"
        },
        {
          "internalType": "bool",
          "name": "lotteryIsOpen",
          "type": "bool"
        },
        {
          "internalType": "address",
          "name": "lotteryOwner",
          "type": "address"
        },
        {
          "internalType": "address payable",
          "name": "lotteryManager",
          "type": "address"
        }
      ],
      "stateMutability": "view",
      "type": "function"
    },
    {
      "inputs": [
        {
          "internalType": "bool",
          "name": "openMyLottery",
          "type": "bool"
        }
      ],
      "name": "openOrCloseLottery",
      "outputs": [],
      "stateMutability": "nonpayable",
      "type": "function"
    },
    {
      "inputs": [
        {
          "internalType": "string",
          "name": "myLotteryTitle",
          "type": "string"
        },
        {
          "internalType": "uint256",
          "name": "myLotteryStartDate",
          "type": "uint256"
        },
        {
          "internalType": "uint256",
          "name": "myLotteryTicketPrice",
          "type": "uint256"
        },
        {
          "internalType": "address payable",
          "name": "myLotteryManager",
          "type": "address"
        },
        {
          "internalType": "bool",
          "name": "myLotteryIsSingleTicket",
          "type": "bool"
        }
      ],
      "name": "runNewLottery",
      "outputs": [],
      "stateMutability": "nonpayable",
      "type": "function"
    },
    {
      "inputs": [],
      "name": "secondPrizePotShare",
      "outputs": [
        {
          "internalType": "uint256",
          "name": "",
          "type": "uint256"
        }
      ],
      "stateMutability": "view",
      "type": "function"
    },
    {
      "inputs": [],
      "name": "ticketFeeShare",
      "outputs": [
        {
          "internalType": "uint256",
          "name": "",
          "type": "uint256"
        }
      ],
      "stateMutability": "view",
      "type": "function"
    }
  ],
  "bytecode": "0x608060405234801561001057600080fd5b50426002800181905550600160026003018190555033600260040160016101000a81548173ffffffffffffffffffffffffffffffffffffffff021916908373ffffffffffffffffffffffffffffffffffffffff16021790555033600260050160006101000a81548173ffffffffffffffffffffffffffffffffffffffff021916908373ffffffffffffffffffffffffffffffffffffffff1602179055506000600260040160006101000a81548160ff0219169083151502179055506000808190555060006001819055506117cd806100e96000396000f3fe60806040526004361061009c5760003560e01c8063574479e611610064578063574479e614610152578063673bea041461017d578063a56b21ae146101a8578063e4cb3473146101b2578063f99b0282146101bc578063fefa34cf146101e75761009c565b806302efc4b6146100a15780630724f091146100ca5780632b5993fa146100fb57806338b97c53146101125780633daa047f1461013b575b600080fd5b3480156100ad57600080fd5b506100c860048036038101906100c39190610f95565b610212565b005b3480156100d657600080fd5b506100df610339565b6040516100f2979695949392919061110d565b60405180910390f35b34801561010757600080fd5b5061011061044b565b005b34801561011e57600080fd5b5061013960048036038101906101349190611183565b610520565b005b34801561014757600080fd5b50610150610540565b005b34801561015e57600080fd5b50610167610aeb565b60405161017491906111b0565b60405180910390f35b34801561018957600080fd5b50610192610af1565b60405161019f91906111b0565b60405180910390f35b6101b0610af6565b005b6101ba610c34565b005b3480156101c857600080fd5b506101d1610dd2565b6040516101de91906111b0565b60405180910390f35b3480156101f357600080fd5b506101fc610dd7565b60405161020991906111b0565b60405180910390f35b6000831161021f57600080fd5b600080541461022d57600080fd5b600260040160019054906101000a900473ffffffffffffffffffffffffffffffffffffffff1673ffffffffffffffffffffffffffffffffffffffff163373ffffffffffffffffffffffffffffffffffffffff161461028a57600080fd5b85856002600001918261029e929190611411565b508360028001819055508260026003018190555081600260050160006101000a81548173ffffffffffffffffffffffffffffffffffffffff021916908373ffffffffffffffffffffffffffffffffffffffff16021790555080600260010160006101000a81548160ff0219169083151502179055506001600260040160006101000a81548160ff021916908315150217905550505050505050565b600280600001805461034a90611234565b80601f016020809104026020016040519081016040528092919081815260200182805461037690611234565b80156103c35780601f10610398576101008083540402835291602001916103c3565b820191906000526020600020905b8154815290600101906020018083116103a657829003601f168201915b5050505050908060010160009054906101000a900460ff16908060020154908060030154908060040160009054906101000a900460ff16908060040160019054906101000a900473ffffffffffffffffffffffffffffffffffffffff16908060050160009054906101000a900473ffffffffffffffffffffffffffffffffffffffff16905087565b600260040160019054906101000a900473ffffffffffffffffffffffffffffffffffffffff1673ffffffffffffffffffffffffffffffffffffffff163373ffffffffffffffffffffffffffffffffffffffff16146104a857600080fd5b600260050160009054906101000a900473ffffffffffffffffffffffffffffffffffffffff1673ffffffffffffffffffffffffffffffffffffffff166108fc6001549081150290604051600060405180830381858888f19350505050158015610515573d6000803e3d6000fd5b506000600181905550565b80600260040160006101000a81548160ff02191690831515021790555050565b60026003015460026105529190611510565b600054101561056057600080fd5b600260040160019054906101000a900473ffffffffffffffffffffffffffffffffffffffff1673ffffffffffffffffffffffffffffffffffffffff163373ffffffffffffffffffffffffffffffffffffffff16146105bd57600080fd5b60001515600260040160009054906101000a900460ff161515146105e057600080fd5b60008060004233426040516020016105fa939291906115bb565b6040516020818303038152906040528051906020012060001c9050600260060180549050816106299190611627565b90506002600601818154811061064257610641611658565b5b9060005260206000200160009054906101000a900473ffffffffffffffffffffffffffffffffffffffff169250600260060160016002600601805490506106899190611687565b8154811061069a57610699611658565b5b9060005260206000200160009054906101000a900473ffffffffffffffffffffffffffffffffffffffff16600260060182815481106106dc576106db611658565b5b9060005260206000200160006101000a81548173ffffffffffffffffffffffffffffffffffffffff021916908373ffffffffffffffffffffffffffffffffffffffff1602179055506002600601805480610739576107386116bb565b5b6001900381819060005260206000200160006101000a81549073ffffffffffffffffffffffffffffffffffffffff02191690559055423342604051602001610783939291906115bb565b6040516020818303038152906040528051906020012060001c9050600260060180549050816107b29190611627565b9050600260060181815481106107cb576107ca611658565b5b9060005260206000200160009054906101000a900473ffffffffffffffffffffffffffffffffffffffff1691506000806000604b606460005461080e91906116ea565b6108189190611510565b92506014606460005461082b91906116ea565b6108359190611510565b91508183610843919061171b565b6000546108509190611687565b90508573ffffffffffffffffffffffffffffffffffffffff166108fc849081150290604051600060405180830381858888f19350505050158015610898573d6000803e3d6000fd5b508473ffffffffffffffffffffffffffffffffffffffff166108fc839081150290604051600060405180830381858888f193505050501580156108df573d6000803e3d6000fd5b50806001546108ee919061171b565b6001819055506000808190555060011515600260010160009054906101000a900460ff16151503610a38576000600260070160008873ffffffffffffffffffffffffffffffffffffffff1673ffffffffffffffffffffffffffffffffffffffff16815260200190815260200160002060006101000a81548160ff02191690831515021790555060005b600260060180549050811015610a3657600060026007016000600260060184815481106109a7576109a6611658565b5b9060005260206000200160009054906101000a900473ffffffffffffffffffffffffffffffffffffffff1673ffffffffffffffffffffffffffffffffffffffff1673ffffffffffffffffffffffffffffffffffffffff16815260200190815260200160002060006101000a81548160ff0219169083151502179055508080610a2e9061174f565b915050610977565b505b600260008082016000610a4b9190610ddc565b6001820160006101000a81549060ff0219169055600282016000905560038201600090556004820160006101000a81549060ff02191690556004820160016101000a81549073ffffffffffffffffffffffffffffffffffffffff02191690556005820160006101000a81549073ffffffffffffffffffffffffffffffffffffffff0219169055600682016000610ae19190610e1c565b5050505050505050565b60005481565b601481565b60028001544211610b0657600080fd5b6002600301543414610b1757600080fd5b60011515600260040160009054906101000a900460ff16151514610b3a57600080fd5b60001515600260010160009054906101000a900460ff16151514610b5d57600080fd5b34600054610b6b919061171b565b6000819055506002600601339080600181540180825580915050600190039060005260206000200160009091909190916101000a81548173ffffffffffffffffffffffffffffffffffffffff021916908373ffffffffffffffffffffffffffffffffffffffff1602179055506001600260070160003373ffffffffffffffffffffffffffffffffffffffff1673ffffffffffffffffffffffffffffffffffffffff16815260200190815260200160002060006101000a81548160ff021916908315150217905550565b60028001544211610c4457600080fd5b6002600301543414610c5557600080fd5b60011515600260040160009054906101000a900460ff16151514610c7857600080fd5b60011515600260010160009054906101000a900460ff16151514610c9b57600080fd5b60001515600260070160003373ffffffffffffffffffffffffffffffffffffffff1673ffffffffffffffffffffffffffffffffffffffff16815260200190815260200160002060009054906101000a900460ff16151514610cfb57600080fd5b34600054610d09919061171b565b6000819055506002600601339080600181540180825580915050600190039060005260206000200160009091909190916101000a81548173ffffffffffffffffffffffffffffffffffffffff021916908373ffffffffffffffffffffffffffffffffffffffff1602179055506001600260070160003373ffffffffffffffffffffffffffffffffffffffff1673ffffffffffffffffffffffffffffffffffffffff16815260200190815260200160002060006101000a81548160ff021916908315150217905550565b600581565b604b81565b508054610de890611234565b6000825580601f10610dfa5750610e19565b601f016020900490600052602060002090810190610e189190610e3d565b5b50565b5080546000825590600052602060002090810190610e3a9190610e3d565b50565b5b80821115610e56576000816000905550600101610e3e565b5090565b600080fd5b600080fd5b600080fd5b600080fd5b600080fd5b60008083601f840112610e8957610e88610e64565b5b8235905067ffffffffffffffff811115610ea657610ea5610e69565b5b602083019150836001820283011115610ec257610ec1610e6e565b5b9250929050565b6000819050919050565b610edc81610ec9565b8114610ee757600080fd5b50565b600081359050610ef981610ed3565b92915050565b600073ffffffffffffffffffffffffffffffffffffffff82169050919050565b6000610f2a82610eff565b9050919050565b610f3a81610f1f565b8114610f4557600080fd5b50565b600081359050610f5781610f31565b92915050565b60008115159050919050565b610f7281610f5d565b8114610f7d57600080fd5b50565b600081359050610f8f81610f69565b92915050565b60008060008060008060a08789031215610fb257610fb1610e5a565b5b600087013567ffffffffffffffff811115610fd057610fcf610e5f565b5b610fdc89828a01610e73565b96509650506020610fef89828a01610eea565b945050604061100089828a01610eea565b935050606061101189828a01610f48565b925050608061102289828a01610f80565b9150509295509295509295565b600081519050919050565b600082825260208201905092915050565b60005b8381101561106957808201518184015260208101905061104e565b60008484015250505050565b6000601f19601f8301169050919050565b60006110918261102f565b61109b818561103a565b93506110ab81856020860161104b565b6110b481611075565b840191505092915050565b6110c881610f5d565b82525050565b6110d781610ec9565b82525050565b60006110e882610eff565b9050919050565b6110f8816110dd565b82525050565b61110781610f1f565b82525050565b600060e0820190508181036000830152611127818a611086565b905061113660208301896110bf565b61114360408301886110ce565b61115060608301876110ce565b61115d60808301866110bf565b61116a60a08301856110ef565b61117760c08301846110fe565b98975050505050505050565b60006020828403121561119957611198610e5a565b5b60006111a784828501610f80565b91505092915050565b60006020820190506111c560008301846110ce565b92915050565b600082905092915050565b7f4e487b7100000000000000000000000000000000000000000000000000000000600052604160045260246000fd5b7f4e487b7100000000000000000000000000000000000000000000000000000000600052602260045260246000fd5b6000600282049050600182168061124c57607f821691505b60208210810361125f5761125e611205565b5b50919050565b60008190508160005260206000209050919050565b60006020601f8301049050919050565b600082821b905092915050565b6000600883026112c77fffffffffffffffffffffffffffffffffffffffffffffffffffffffffffffffff8261128a565b6112d1868361128a565b95508019841693508086168417925050509392505050565b6000819050919050565b600061130e61130961130484610ec9565b6112e9565b610ec9565b9050919050565b6000819050919050565b611328836112f3565b61133c61133482611315565b848454611297565b825550505050565b600090565b611351611344565b61135c81848461131f565b505050565b5b8181101561138057611375600082611349565b600181019050611362565b5050565b601f8211156113c55761139681611265565b61139f8461127a565b810160208510156113ae578190505b6113c26113ba8561127a565b830182611361565b50505b505050565b600082821c905092915050565b60006113e8600019846008026113ca565b1980831691505092915050565b600061140183836113d7565b9150826002028217905092915050565b61141b83836111cb565b67ffffffffffffffff811115611434576114336111d6565b5b61143e8254611234565b611449828285611384565b6000601f8311600181146114785760008415611466578287013590505b61147085826113f5565b8655506114d8565b601f19841661148686611265565b60005b828110156114ae57848901358255600182019150602085019450602081019050611489565b868310156114cb57848901356114c7601f8916826113d7565b8355505b6001600288020188555050505b50505050505050565b7f4e487b7100000000000000000000000000000000000000000000000000000000600052601160045260246000fd5b600061151b82610ec9565b915061152683610ec9565b925082820261153481610ec9565b9150828204841483151761154b5761154a6114e1565b5b5092915050565b6000819050919050565b61156d61156882610ec9565b611552565b82525050565b60008160601b9050919050565b600061158b82611573565b9050919050565b600061159d82611580565b9050919050565b6115b56115b0826110dd565b611592565b82525050565b60006115c7828661155c565b6020820191506115d782856115a4565b6014820191506115e7828461155c565b602082019150819050949350505050565b7f4e487b7100000000000000000000000000000000000000000000000000000000600052601260045260246000fd5b600061163282610ec9565b915061163d83610ec9565b92508261164d5761164c6115f8565b5b828206905092915050565b7f4e487b7100000000000000000000000000000000000000000000000000000000600052603260045260246000fd5b600061169282610ec9565b915061169d83610ec9565b92508282039050818111156116b5576116b46114e1565b5b92915050565b7f4e487b7100000000000000000000000000000000000000000000000000000000600052603160045260246000fd5b60006116f582610ec9565b915061170083610ec9565b9250826117105761170f6115f8565b5b828204905092915050565b600061172682610ec9565b915061173183610ec9565b9250828201905080821115611749576117486114e1565b5b92915050565b600061175a82610ec9565b91507fffffffffffffffffffffffffffffffffffffffffffffffffffffffffffffffff820361178c5761178b6114e1565b5b60018201905091905056fea264697066735822122086bc5806e102a1ec8090b1c04ecdca833759a5865dad7d926a65f94dfa000b8e64736f6c63430008130033",
  "linkReferences": {},
  "deployedLinkReferences": {}
}